{
  "_format": "hh-sol-artifact-1",
  "contractName": "Vault",
  "sourceName": "contracts/Vault.sol",
  "abi": [
    {
      "inputs": [
        {
          "internalType": "address",
          "name": "_token",
          "type": "address"
        }
      ],
      "stateMutability": "nonpayable",
      "type": "constructor"
    },
    {
      "inputs": [
        {
          "internalType": "uint256",
          "name": "amount",
          "type": "uint256"
        }
      ],
      "name": "deposite",
      "outputs": [],
      "stateMutability": "nonpayable",
      "type": "function"
    },
    {
      "inputs": [],
      "name": "token",
      "outputs": [
        {
          "internalType": "address",
          "name": "",
          "type": "address"
        }
      ],
      "stateMutability": "view",
      "type": "function"
    },
    {
      "inputs": [],
      "name": "withdraw",
      "outputs": [],
      "stateMutability": "nonpayable",
      "type": "function"
    }
  ],
  "bytecode": "0x60a060405234801561001057600080fd5b5060405161079e38038061079e83398181016040528101906100329190610084565b8073ffffffffffffffffffffffffffffffffffffffff1660808173ffffffffffffffffffffffffffffffffffffffff1660601b81525050506100f6565b60008151905061007e816100df565b92915050565b60006020828403121561009657600080fd5b60006100a48482850161006f565b91505092915050565b60006100b8826100bf565b9050919050565b600073ffffffffffffffffffffffffffffffffffffffff82169050919050565b6100e8816100ad565b81146100f357600080fd5b50565b60805160601c61067d61012160003960008181608c0152818161022e015261038d015261067d6000f3fe608060405234801561001057600080fd5b50600436106100415760003560e01c80633104562b146100465780633ccfd60b14610062578063fc0c546a1461006c575b600080fd5b610060600480360381019061005b9190610402565b61008a565b005b61006a6101e9565b005b61007461038b565b604051610081919061046c565b60405180910390f35b7f000000000000000000000000000000000000000000000000000000000000000073ffffffffffffffffffffffffffffffffffffffff166323b872dd3330846040518463ffffffff1660e01b81526004016100e793929190610487565b602060405180830381600087803b15801561010157600080fd5b505af1158015610115573d6000803e3d6000fd5b505050506040513d601f19601f8201168201806040525081019061013991906103d9565b610178576040517f08c379a000000000000000000000000000000000000000000000000000000000815260040161016f906104be565b60405180910390fd5b806000803373ffffffffffffffffffffffffffffffffffffffff1673ffffffffffffffffffffffffffffffffffffffff16815260200190815260200160002060008282546101c691906104ef565b9250508190555080600160008282546101df91906104ef565b9250508190555050565b60008060003373ffffffffffffffffffffffffffffffffffffffff1673ffffffffffffffffffffffffffffffffffffffff1681526020019081526020016000205490507f000000000000000000000000000000000000000000000000000000000000000073ffffffffffffffffffffffffffffffffffffffff166323b872dd3033846040518463ffffffff1660e01b815260040161028993929190610487565b602060405180830381600087803b1580156102a357600080fd5b505af11580156102b7573d6000803e3d6000fd5b505050506040513d601f19601f820116820180604052508101906102db91906103d9565b61031a576040517f08c379a0000000000000000000000000000000000000000000000000000000008152600401610311906104be565b60405180910390fd5b806000803373ffffffffffffffffffffffffffffffffffffffff1673ffffffffffffffffffffffffffffffffffffffff16815260200190815260200160002060008282546103689190610545565b9250508190555080600160008282546103819190610545565b9250508190555050565b7f000000000000000000000000000000000000000000000000000000000000000081565b6000815190506103be81610619565b92915050565b6000813590506103d381610630565b92915050565b6000602082840312156103eb57600080fd5b60006103f9848285016103af565b91505092915050565b60006020828403121561041457600080fd5b6000610422848285016103c4565b91505092915050565b61043481610579565b82525050565b60006104476012836104de565b9150610452826105f0565b602082019050919050565b610466816105b7565b82525050565b6000602082019050610481600083018461042b565b92915050565b600060608201905061049c600083018661042b565b6104a9602083018561042b565b6104b6604083018461045d565b949350505050565b600060208201905081810360008301526104d78161043a565b9050919050565b600082825260208201905092915050565b60006104fa826105b7565b9150610505836105b7565b9250827fffffffffffffffffffffffffffffffffffffffffffffffffffffffffffffffff0382111561053a576105396105c1565b5b828201905092915050565b6000610550826105b7565b915061055b836105b7565b92508282101561056e5761056d6105c1565b5b828203905092915050565b600061058482610597565b9050919050565b60008115159050919050565b600073ffffffffffffffffffffffffffffffffffffffff82169050919050565b6000819050919050565b7f4e487b7100000000000000000000000000000000000000000000000000000000600052601160045260246000fd5b7f5472616e7366657266726f6d206661696c210000000000000000000000000000600082015250565b6106228161058b565b811461062d57600080fd5b50565b610639816105b7565b811461064457600080fd5b5056fea2646970667358221220a96d64ffbe41a04910cf1a6d58b9318255fd1277af1b127dc496cfca99cea99364736f6c63430008040033",
  "linkReferences": {},
  "deployedLinkReferences": {}
}