{
  "_format": "hh-sol-artifact-1",
  "contractName": "ERC20Token",
  "sourceName": "contracts/ERC20Token.sol",
  "abi": [
    {
      "inputs": [],
      "stateMutability": "nonpayable",
      "type": "constructor"
    },
    {
      "anonymous": false,
      "inputs": [
        {
          "indexed": true,
          "internalType": "address",
          "name": "owner",
          "type": "address"
        },
        {
          "indexed": true,
          "internalType": "address",
          "name": "spender",
          "type": "address"
        },
        {
          "indexed": false,
          "internalType": "uint256",
          "name": "value",
          "type": "uint256"
        }
      ],
      "name": "Approval",
      "type": "event"
    },
    {
      "anonymous": false,
      "inputs": [
        {
          "indexed": true,
          "internalType": "address",
          "name": "from",
          "type": "address"
        },
        {
          "indexed": true,
          "internalType": "address",
          "name": "to",
          "type": "address"
        },
        {
          "indexed": false,
          "internalType": "uint256",
          "name": "value",
          "type": "uint256"
        }
      ],
      "name": "Transfer",
      "type": "event"
    },
    {
      "inputs": [
        {
          "internalType": "address",
          "name": "owner",
          "type": "address"
        },
        {
          "internalType": "address",
          "name": "spender",
          "type": "address"
        }
      ],
      "name": "allowance",
      "outputs": [
        {
          "internalType": "uint256",
          "name": "",
          "type": "uint256"
        }
      ],
      "stateMutability": "view",
      "type": "function"
    },
    {
      "inputs": [
        {
          "internalType": "address",
          "name": "spender",
          "type": "address"
        },
        {
          "internalType": "uint256",
          "name": "amount",
          "type": "uint256"
        }
      ],
      "name": "approve",
      "outputs": [
        {
          "internalType": "bool",
          "name": "",
          "type": "bool"
        }
      ],
      "stateMutability": "nonpayable",
      "type": "function"
    },
    {
      "inputs": [
        {
          "internalType": "address",
          "name": "account",
          "type": "address"
        }
      ],
      "name": "balanceOf",
      "outputs": [
        {
          "internalType": "uint256",
          "name": "",
          "type": "uint256"
        }
      ],
      "stateMutability": "view",
      "type": "function"
    },
    {
      "inputs": [],
      "name": "decimals",
      "outputs": [
        {
          "internalType": "uint8",
          "name": "",
          "type": "uint8"
        }
      ],
      "stateMutability": "view",
      "type": "function"
    },
    {
      "inputs": [
        {
          "internalType": "address",
          "name": "spender",
          "type": "address"
        },
        {
          "internalType": "uint256",
          "name": "subtractedValue",
          "type": "uint256"
        }
      ],
      "name": "decreaseAllowance",
      "outputs": [
        {
          "internalType": "bool",
          "name": "",
          "type": "bool"
        }
      ],
      "stateMutability": "nonpayable",
      "type": "function"
    },
    {
      "inputs": [
        {
          "internalType": "address",
          "name": "spender",
          "type": "address"
        },
        {
          "internalType": "uint256",
          "name": "addedValue",
          "type": "uint256"
        }
      ],
      "name": "increaseAllowance",
      "outputs": [
        {
          "internalType": "bool",
          "name": "",
          "type": "bool"
        }
      ],
      "stateMutability": "nonpayable",
      "type": "function"
    },
    {
      "inputs": [
        {
          "internalType": "uint256",
          "name": "increaseAmount",
          "type": "uint256"
        }
      ],
      "name": "increaseBalance",
      "outputs": [],
      "stateMutability": "nonpayable",
      "type": "function"
    },
    {
      "inputs": [],
      "name": "name",
      "outputs": [
        {
          "internalType": "string",
          "name": "",
          "type": "string"
        }
      ],
      "stateMutability": "view",
      "type": "function"
    },
    {
      "inputs": [],
      "name": "symbol",
      "outputs": [
        {
          "internalType": "string",
          "name": "",
          "type": "string"
        }
      ],
      "stateMutability": "view",
      "type": "function"
    },
    {
      "inputs": [],
      "name": "totalSupply",
      "outputs": [
        {
          "internalType": "uint256",
          "name": "",
          "type": "uint256"
        }
      ],
      "stateMutability": "view",
      "type": "function"
    },
    {
      "inputs": [
        {
          "internalType": "address",
          "name": "to",
          "type": "address"
        },
        {
          "internalType": "uint256",
          "name": "amount",
          "type": "uint256"
        }
      ],
      "name": "transfer",
      "outputs": [
        {
          "internalType": "bool",
          "name": "",
          "type": "bool"
        }
      ],
      "stateMutability": "nonpayable",
      "type": "function"
    },
    {
      "inputs": [
        {
          "internalType": "address",
          "name": "from",
          "type": "address"
        },
        {
          "internalType": "address",
          "name": "to",
          "type": "address"
        },
        {
          "internalType": "uint256",
          "name": "amount",
          "type": "uint256"
        }
      ],
      "name": "transferFrom",
      "outputs": [
        {
          "internalType": "bool",
          "name": "",
          "type": "bool"
        }
      ],
      "stateMutability": "nonpayable",
      "type": "function"
    }
  ],
  "bytecode": "0x60806040523480156200001157600080fd5b506040518060400160405280600681526020017f42695469436900000000000000000000000000000000000000000000000000008152506040518060400160405280600381526020017f4254430000000000000000000000000000000000000000000000000000000000815250816003908051906020019062000096929190620000f9565b508060049080519060200190620000af929190620000f9565b50505033600560006101000a81548173ffffffffffffffffffffffffffffffffffffffff021916908373ffffffffffffffffffffffffffffffffffffffff1602179055506200020e565b8280546200010790620001a9565b90600052602060002090601f0160209004810192826200012b576000855562000177565b82601f106200014657805160ff191683800117855562000177565b8280016001018555821562000177579182015b828111156200017657825182559160200191906001019062000159565b5b5090506200018691906200018a565b5090565b5b80821115620001a55760008160009055506001016200018b565b5090565b60006002820490506001821680620001c257607f821691505b60208210811415620001d957620001d8620001df565b5b50919050565b7f4e487b7100000000000000000000000000000000000000000000000000000000600052602260045260246000fd5b611680806200021e6000396000f3fe608060405234801561001057600080fd5b50600436106100b45760003560e01c80633e4ccb40116100715780633e4ccb40146101a357806370a08231146101bf57806395d89b41146101ef578063a457c2d71461020d578063a9059cbb1461023d578063dd62ed3e1461026d576100b4565b806306fdde03146100b9578063095ea7b3146100d757806318160ddd1461010757806323b872dd14610125578063313ce567146101555780633950935114610173575b600080fd5b6100c161029d565b6040516100ce91906110b4565b60405180910390f35b6100f160048036038101906100ec9190610e93565b61032f565b6040516100fe9190611099565b60405180910390f35b61010f610352565b60405161011c91906111f6565b60405180910390f35b61013f600480360381019061013a9190610e44565b61035c565b60405161014c9190611099565b60405180910390f35b61015d61038b565b60405161016a9190611211565b60405180910390f35b61018d60048036038101906101889190610e93565b610394565b60405161019a9190611099565b60405180910390f35b6101bd60048036038101906101b89190610ecf565b61043e565b005b6101d960048036038101906101d49190610ddf565b6104fd565b6040516101e691906111f6565b60405180910390f35b6101f7610545565b60405161020491906110b4565b60405180910390f35b61022760048036038101906102229190610e93565b6105d7565b6040516102349190611099565b60405180910390f35b61025760048036038101906102529190610e93565b6106c1565b6040516102649190611099565b60405180910390f35b61028760048036038101906102829190610e08565b6106e4565b60405161029491906111f6565b60405180910390f35b6060600380546102ac90611326565b80601f01602080910402602001604051908101604052809291908181526020018280546102d890611326565b80156103255780601f106102fa57610100808354040283529160200191610325565b820191906000526020600020905b81548152906001019060200180831161030857829003601f168201915b5050505050905090565b60008061033a61076b565b9050610347818585610773565b600191505092915050565b6000600254905090565b60008061036761076b565b905061037485828561093e565b61037f8585856109ca565b60019150509392505050565b60006012905090565b60008061039f61076b565b9050610433818585600160008673ffffffffffffffffffffffffffffffffffffffff1673ffffffffffffffffffffffffffffffffffffffff16815260200190815260200160002060008973ffffffffffffffffffffffffffffffffffffffff1673ffffffffffffffffffffffffffffffffffffffff1681526020019081526020016000205461042e9190611248565b610773565b600191505092915050565b3373ffffffffffffffffffffffffffffffffffffffff16600560009054906101000a900473ffffffffffffffffffffffffffffffffffffffff1673ffffffffffffffffffffffffffffffffffffffff16146104ce576040517f08c379a00000000000000000000000000000000000000000000000000000000081526004016104c590611196565b60405180910390fd5b6104fa600560009054906101000a900473ffffffffffffffffffffffffffffffffffffffff1682610c4b565b50565b60008060008373ffffffffffffffffffffffffffffffffffffffff1673ffffffffffffffffffffffffffffffffffffffff168152602001908152602001600020549050919050565b60606004805461055490611326565b80601f016020809104026020016040519081016040528092919081815260200182805461058090611326565b80156105cd5780601f106105a2576101008083540402835291602001916105cd565b820191906000526020600020905b8154815290600101906020018083116105b057829003601f168201915b5050505050905090565b6000806105e261076b565b90506000600160008373ffffffffffffffffffffffffffffffffffffffff1673ffffffffffffffffffffffffffffffffffffffff16815260200190815260200160002060008673ffffffffffffffffffffffffffffffffffffffff1673ffffffffffffffffffffffffffffffffffffffff168152602001908152602001600020549050838110156106a8576040517f08c379a000000000000000000000000000000000000000000000000000000000815260040161069f906111b6565b60405180910390fd5b6106b58286868403610773565b60019250505092915050565b6000806106cc61076b565b90506106d98185856109ca565b600191505092915050565b6000600160008473ffffffffffffffffffffffffffffffffffffffff1673ffffffffffffffffffffffffffffffffffffffff16815260200190815260200160002060008373ffffffffffffffffffffffffffffffffffffffff1673ffffffffffffffffffffffffffffffffffffffff16815260200190815260200160002054905092915050565b600033905090565b600073ffffffffffffffffffffffffffffffffffffffff168373ffffffffffffffffffffffffffffffffffffffff1614156107e3576040517f08c379a00000000000000000000000000000000000000000000000000000000081526004016107da90611176565b60405180910390fd5b600073ffffffffffffffffffffffffffffffffffffffff168273ffffffffffffffffffffffffffffffffffffffff161415610853576040517f08c379a000000000000000000000000000000000000000000000000000000000815260040161084a906110f6565b60405180910390fd5b80600160008573ffffffffffffffffffffffffffffffffffffffff1673ffffffffffffffffffffffffffffffffffffffff16815260200190815260200160002060008473ffffffffffffffffffffffffffffffffffffffff1673ffffffffffffffffffffffffffffffffffffffff168152602001908152602001600020819055508173ffffffffffffffffffffffffffffffffffffffff168373ffffffffffffffffffffffffffffffffffffffff167f8c5be1e5ebec7d5bd14f71427d1e84f3dd0314c0f7b2291e5b200ac8c7c3b9258360405161093191906111f6565b60405180910390a3505050565b600061094a84846106e4565b90507fffffffffffffffffffffffffffffffffffffffffffffffffffffffffffffffff81146109c457818110156109b6576040517f08c379a00000000000000000000000000000000000000000000000000000000081526004016109ad90611116565b60405180910390fd5b6109c38484848403610773565b5b50505050565b600073ffffffffffffffffffffffffffffffffffffffff168373ffffffffffffffffffffffffffffffffffffffff161415610a3a576040517f08c379a0000000000000000000000000000000000000000000000000000000008152600401610a3190611156565b60405180910390fd5b600073ffffffffffffffffffffffffffffffffffffffff168273ffffffffffffffffffffffffffffffffffffffff161415610aaa576040517f08c379a0000000000000000000000000000000000000000000000000000000008152600401610aa1906110d6565b60405180910390fd5b610ab5838383610dab565b60008060008573ffffffffffffffffffffffffffffffffffffffff1673ffffffffffffffffffffffffffffffffffffffff16815260200190815260200160002054905081811015610b3b576040517f08c379a0000000000000000000000000000000000000000000000000000000008152600401610b3290611136565b60405180910390fd5b8181036000808673ffffffffffffffffffffffffffffffffffffffff1673ffffffffffffffffffffffffffffffffffffffff16815260200190815260200160002081905550816000808573ffffffffffffffffffffffffffffffffffffffff1673ffffffffffffffffffffffffffffffffffffffff1681526020019081526020016000206000828254610bce9190611248565b925050819055508273ffffffffffffffffffffffffffffffffffffffff168473ffffffffffffffffffffffffffffffffffffffff167fddf252ad1be2c89b69c2b068fc378daa952ba7f163c4a11628f55a4df523b3ef84604051610c3291906111f6565b60405180910390a3610c45848484610db0565b50505050565b600073ffffffffffffffffffffffffffffffffffffffff168273ffffffffffffffffffffffffffffffffffffffff161415610cbb576040517f08c379a0000000000000000000000000000000000000000000000000000000008152600401610cb2906111d6565b60405180910390fd5b610cc760008383610dab565b8060026000828254610cd99190611248565b92505081905550806000808473ffffffffffffffffffffffffffffffffffffffff1673ffffffffffffffffffffffffffffffffffffffff1681526020019081526020016000206000828254610d2e9190611248565b925050819055508173ffffffffffffffffffffffffffffffffffffffff16600073ffffffffffffffffffffffffffffffffffffffff167fddf252ad1be2c89b69c2b068fc378daa952ba7f163c4a11628f55a4df523b3ef83604051610d9391906111f6565b60405180910390a3610da760008383610db0565b5050565b505050565b505050565b600081359050610dc48161161c565b92915050565b600081359050610dd981611633565b92915050565b600060208284031215610df157600080fd5b6000610dff84828501610db5565b91505092915050565b60008060408385031215610e1b57600080fd5b6000610e2985828601610db5565b9250506020610e3a85828601610db5565b9150509250929050565b600080600060608486031215610e5957600080fd5b6000610e6786828701610db5565b9350506020610e7886828701610db5565b9250506040610e8986828701610dca565b9150509250925092565b60008060408385031215610ea657600080fd5b6000610eb485828601610db5565b9250506020610ec585828601610dca565b9150509250929050565b600060208284031215610ee157600080fd5b6000610eef84828501610dca565b91505092915050565b610f01816112b0565b82525050565b6000610f128261122c565b610f1c8185611237565b9350610f2c8185602086016112f3565b610f35816113b6565b840191505092915050565b6000610f4d602383611237565b9150610f58826113c7565b604082019050919050565b6000610f70602283611237565b9150610f7b82611416565b604082019050919050565b6000610f93601d83611237565b9150610f9e82611465565b602082019050919050565b6000610fb6602683611237565b9150610fc18261148e565b604082019050919050565b6000610fd9602583611237565b9150610fe4826114dd565b604082019050919050565b6000610ffc602483611237565b91506110078261152c565b604082019050919050565b600061101f600b83611237565b915061102a8261157b565b602082019050919050565b6000611042602583611237565b915061104d826115a4565b604082019050919050565b6000611065601f83611237565b9150611070826115f3565b602082019050919050565b611084816112dc565b82525050565b611093816112e6565b82525050565b60006020820190506110ae6000830184610ef8565b92915050565b600060208201905081810360008301526110ce8184610f07565b905092915050565b600060208201905081810360008301526110ef81610f40565b9050919050565b6000602082019050818103600083015261110f81610f63565b9050919050565b6000602082019050818103600083015261112f81610f86565b9050919050565b6000602082019050818103600083015261114f81610fa9565b9050919050565b6000602082019050818103600083015261116f81610fcc565b9050919050565b6000602082019050818103600083015261118f81610fef565b9050919050565b600060208201905081810360008301526111af81611012565b9050919050565b600060208201905081810360008301526111cf81611035565b9050919050565b600060208201905081810360008301526111ef81611058565b9050919050565b600060208201905061120b600083018461107b565b92915050565b6000602082019050611226600083018461108a565b92915050565b600081519050919050565b600082825260208201905092915050565b6000611253826112dc565b915061125e836112dc565b9250827fffffffffffffffffffffffffffffffffffffffffffffffffffffffffffffffff0382111561129357611292611358565b5b828201905092915050565b60006112a9826112bc565b9050919050565b60008115159050919050565b600073ffffffffffffffffffffffffffffffffffffffff82169050919050565b6000819050919050565b600060ff82169050919050565b60005b838110156113115780820151818401526020810190506112f6565b83811115611320576000848401525b50505050565b6000600282049050600182168061133e57607f821691505b6020821081141561135257611351611387565b5b50919050565b7f4e487b7100000000000000000000000000000000000000000000000000000000600052601160045260246000fd5b7f4e487b7100000000000000000000000000000000000000000000000000000000600052602260045260246000fd5b6000601f19601f8301169050919050565b7f45524332303a207472616e7366657220746f20746865207a65726f206164647260008201527f6573730000000000000000000000000000000000000000000000000000000000602082015250565b7f45524332303a20617070726f766520746f20746865207a65726f20616464726560008201527f7373000000000000000000000000000000000000000000000000000000000000602082015250565b7f45524332303a20696e73756666696369656e7420616c6c6f77616e6365000000600082015250565b7f45524332303a207472616e7366657220616d6f756e742065786365656473206260008201527f616c616e63650000000000000000000000000000000000000000000000000000602082015250565b7f45524332303a207472616e736665722066726f6d20746865207a65726f20616460008201527f6472657373000000000000000000000000000000000000000000000000000000602082015250565b7f45524332303a20617070726f76652066726f6d20746865207a65726f2061646460008201527f7265737300000000000000000000000000000000000000000000000000000000602082015250565b7f6d73672073656e64657221000000000000000000000000000000000000000000600082015250565b7f45524332303a2064656372656173656420616c6c6f77616e63652062656c6f7760008201527f207a65726f000000000000000000000000000000000000000000000000000000602082015250565b7f45524332303a206d696e7420746f20746865207a65726f206164647265737300600082015250565b6116258161129e565b811461163057600080fd5b50565b61163c816112dc565b811461164757600080fd5b5056fea2646970667358221220f956a7ee146df94ade61b52629b8046b0db95d12944df7e3a8a4dcf838c1c95564736f6c63430008040033",
  "linkReferences": {},
  "deployedLinkReferences": {}
}